:100000000C9461010C9489010C9489010C94890170
:100010000C9489010C9489010C9489010C94890138
:100020000C9489010C9489010C9489010C94890128
:100030000C9489010C9489010C9489010C94890118
:100040000C9486220C9489010C94F6220C94D022F4
:100050000C9489010C9489010C9489010C948901F8
:100060000C9428230C94890100407A10F35A00A0C4
:10007000724E18090010A5D4E80000E87648170071
:1000800000E40B54020000CA9A3B000000E1F505B1
:10009000000080969800000040420F000000A086FB
:1000A00001000000102700000000E803000000002D
:1000B0006400000000000A000000000001000000D1
:1000C00000002C76D888DC674F0823DFC1DFAE59EB
:1000D000E1B1B796E5E3E453C63AE651997696E87E
:1000E000E6C28426EB898C9B62ED407C6FFCEFBC02
:1000F0009C9F40F2BAA56FA5F490055A2AF75C932D
:100100006B6CF9676DC11BFCE0E40D47FEF520E662
:10011000B500D0ED902E0300943577050080841E45
:10012000080000204E0A000000C80C333333330FA0
:10013000986E12831141EF8D2114893BE65516CF3D
:10014000FEE6DB18D1844B381BF77C1D901DA4BB49
:10015000E424203284725E228100C9F124ECA1E5FE
:100160003D27626C6E6B696E660076657200312E9B
:10017000322E3000682D626561740034350062757E
:1001800066662D696E003235360064657600417210
:100190006475696E6F20556E6F0063707500415411
:1001A0006D6567613332385000636F6E00573531CB
:1001B00030300066772D7479706500544D504C36A0
:1001C0006B79423572537A31006275696C64004D07
:1001D000617920203120323032332031303A3030D2
:1001E0003A353900000000000000240027002A00F2
:1001F00000000000250028002B0000000000230064
:100200002600290004040404040404040202020277
:1002100002020303030303030102040810204080C9
:100220000102040810200102040810200000000848
:1002300000020100000304070000000000000000AD
:100240008C018C018C018C018C018C018C018C0146
:100250008C018C018C018C018C018C018C018C0136
:100260008C018C018C018C018C018C018C018C0126
:100270008C018C018C018C018C018C018C018C0116
:10028000F60A8B01CC0A8B01AC0A860A8B018B0122
:100290008B018B018B018B018B018B018B018B01FE
:1002A0008B018B018B018B018B018B018B018B01EE
:1002B0008B018B018B018B018B018B018B018B01DE
:1002C000D32411241FBECFEFD8E0DEBFCDBF13E093
:1002D000A0E0B1E0E6E0FBE602C005900D92A0339D
:1002E000B107D9F726E0A0E3B3E001C01D92AF3615
:1002F000B207E1F711E0C1E6D1E004C02197FE01A9
:100300000E948234C036D107C9F70E94C8250C94D8
:1003100081350C940000089508958CBD9DBD08950D
:1003200020E3FC0120833296862F82958F706F70B8
:100330006A3030F4605D6293682F8111F5CF0895C3
:10034000695CF9CFFC01818D928D0895833081F035
:1003500028F4813099F08230A9F008958730A9F00F
:100360008830C9F08430B1F4809180008F7D03C063
:10037000809180008F7780938000089584B58F7777
:1003800084BD089584B58F7DFBCF8091B0008F77B9
:100390008093B00008958091B0008F7DF9CF1F93B6
:1003A000CF93DF93282F30E0F901E45DFD4F849176
:1003B000F901E85EFD4FD491F901EC5FFD4FC49166
:1003C000CC23A9F0162F81110E94A601EC2FF0E09A
:1003D000EE0FFF1FE051FE4FA591B4918FB7F89437
:1003E000EC91111108C0D095DE23DC938FBFDF9113
:1003F000CF911F910895DE2BF8CFCF93DF9390E03C
:10040000FC01E85EFD4F24918C5F9D4FFC018491BF
:100410008823C9F090E0880F991FFC01EA51FE4F34
:10042000A591B491FC01E051FE4FC591D4916111A9
:100430000DC09FB7F8948C91209582238C9388816E
:10044000282328839FBFDF91CF910895623051F414
:100450009FB7F8943C91822F809583238C93E881F9
:100460002E2BEFCF8FB7F894EC912E2B2C938FBFC0
:10047000EACF1F93CF93DF93182FEB0161E00E9427
:10048000FD01209739F460E0812FDF91CF911F911A
:100490000C94CF01CF3FD10511F461E0F5CFE12FEE
:1004A000F0E0E45DFD4FE491E33031F140F4E13000
:1004B000B1F0E230E1F0C038D1057CF7E4CFE730AD
:1004C00029F1E83059F1E430B1F780918000806281
:1004D00080938000D0938B00C0938A0004C084B5C1
:1004E000806884BDC7BDDF91CF911F91089584B509
:1004F000806284BDC8BDF7CF809180008068809302
:100500008000D0938900C0938800EDCF8091B00027
:1005100080688093B000C093B300E5CF8091B000B5
:1005200080628093B000C093B400DDCF8E3008F0BD
:100530008E508770806480937C0080917A00806404
:1005400080937A0080917A0086FDFCCF80917800BC
:100550009091790008953FB7F8948091620490914A
:100560006304A0916404B091650426B5A89B05C0FE
:100570002F3F19F00196A11DB11D3FBFBA2FA92F22
:10058000982F8827BC01CD01620F711D811D911D1F
:1005900042E0660F771F881F991F4A95D1F708958B
:1005A0008F929F92AF92BF92CF92DF92EF92FF9283
:1005B0006B017C010E94AB024B015C01C114D104B0
:1005C000E104F104B9F00E94AB02681979098A09C3
:1005D0009B09683E73408105910580F321E0C21AB2
:1005E000D108E108F10888EE880E83E0981EA11C6E
:1005F000B11CE4CFFF90EF90DF90CF90BF90AF9011
:100600009F908F9008952FB7F89460915E04709139
:100610005F0480916004909161042FBF0895CF9290
:10062000DF92EF92FF920F931F93CF93DF936B01B3
:100630007C018A0180911E0690911F0697FF21C0C0
:100640000E940303EEE6F5E050E040E026E1249F3F
:10065000D001259FB00D1124A259BA4FED01322FC0
:1006600019923A95E9F760837183828393834F5F90
:100670005F4F76964830510551F710921F06109241
:100680001E0680911E0690911F0608978CF4EEE6D8
:10069000F5E0D0E0C0E084819581892B61F486810A
:1006A0009781892B41F4F80180819181009749F469
:1006B000CFEFDFEF2AC021967696C830D10559F7E3
:1006C000F7CF26E12C9F80012D9F100D1124025998
:1006D0001A4FF801C386D486E586F686958384830F
:1006E0001286108A178681E0838B0E940303F8012B
:1006F000608371838283938380911E0690911F068D
:10070000019690931F0680931E06CE01DF91CF9134
:100710001F910F91FF90EF90DF90CF900895089573
:1007200008954F925F926F927F92AF92BF92CF9255
:10073000DF92EF92FF920F931F93CF93DF93EC0121
:100740006B017B01E40EF51E8B015801AC18BD084E
:100750000E151F0511F10E940303688779878A87A8
:100760009B87E881F9810284F385E02DCE0109950C
:1007700097FF23C00E940303488459846A847B84C2
:1007800064197509860997094C805D806E807F80A9
:10079000641575058605970520F3C501DF91CF9196
:1007A0001F910F91FF90EF90DF90CF90BF90AF908F
:1007B0007F906F905F904F900895F80181938F0123
:1007C000C4CFAF92BF92CF92DF92EF92FF920F937E
:1007D0001F93CF93DF936C017B018B01040F151FD7
:1007E000EB015E01AE18BF08C017D10759F069913F
:1007F000D601ED91FC910190F081E02DC6010995A3
:10080000892B79F7C501DF91CF911F910F91FF904F
:10081000EF90DF90CF90BF90AF900895FC01538D83
:10082000448D252F30E0842F90E0821B930B5417CA
:1008300010F0CF96089501970895FC01918D828D57
:10084000981761F0A28DAE0FBF2FB11D5D968C91F0
:10085000928D9F5F9F73928F90E008958FEF9FEF2F
:100860000895FC01918D828D981731F0828DE80FEB
:10087000F11D858D90E008958FEF9FEF0895FC01A5
:10088000918D228D892F90E0805C9F4F821B910972
:100890008F739927089583E894E00E943F0421E034
:1008A000892B09F420E0822F089580E090E0892BC5
:1008B00029F00E944B0481110C9400000895FC0162
:1008C000A48DA80FB92FB11DA35ABF4F2C91848DB1
:1008D00090E001968F739927848FA689B7892C930E
:1008E000A089B1898C91837080648C93938D848D61
:1008F000981306C00288F389E02D80818F7D808364
:100900000895EF92FF920F931F93CF93DF93EC0123
:1009100081E0888F9B8D8C8D98131AC0E889F989A6
:10092000808185FF15C09FB7F894EE89FF896083A9
:10093000E889F98980818370806480839FBF81E02A
:1009400090E0DF91CF911F910F91FF90EF9008956C
:10095000F62E0B8D10E00F5F1F4F0F731127E02E47
:100960008C8D8E110CC00FB607FCFACFE889F9897F
:10097000808185FFF5CFCE010E945F04F1CFEB8D22
:10098000EC0FFD2FF11DE35AFF4FF0829FB7F89453
:100990000B8FEA89FB8980818062CFCF682F83E843
:1009A00094E00C948104CF93DF93EC01888D88232D
:1009B000B9F0AA89BB89E889F9898C9185FD03C0C2
:1009C000808186FD0DC00FB607FCF7CF8C9185FFA7
:1009D000F2CF808185FFEDCFCE010E945F04E9CF89
:1009E000DF91CF91089520917203260F3327331F93
:1009F00021323105ECF42091BB03FC0190E080E052
:100A0000243069F082E00895A09172032191AC0135
:100A10004E5A5C4FA40FB52FB11D2C93019686172B
:100A200098F380917203680F6093720380E00895D9
:100A300081E008951092BB0381E08093BA03109285
:100A4000950361E082E10E94CF0161E083E10E94B1
:100A5000CF01E9EBF0E080818E7F808380818D7F04
:100A6000808388E48093B80085E48093BC00089577
:100A7000CF93DF9391E0909351038823B9F0C09115
:100A8000B800D091BA008091BC008A7B8093BC00F2
:100A900060E082E10E94CF0160E083E10E94CF012B
:100AA0000E941A05D093BA00C093B800DF91CF918D
:100AB0000895E091580480915704E81730F4F0E06D
:100AC000EF5CFC4F808190E008958FEF9FEF0895D9
:100AD00090915804809157042FEF3FEF981748F4F6
:100AE000E92FF0E0EF5CFC4F208130E09F5F9093B6
:100AF0005804C90108958091570490915804891BA6
:100B0000990B0895CF92DF92EF92FF920F931F936C
:100B1000CF93DF937C01CB018A012091C103222373
:100B200089F0EB016B01C40ED51ECC15DD0569F013
:100B30006991D701ED91FC910190F081E02DC70101
:100B40000995F3CF642F0E94F304C801DF91CF9180
:100B50001F910F91FF90EF90DF90CF900895CF936A
:100B6000DF931F92CDB7DEB769832091C1032223A3
:100B7000F9F020915504203258F021E030E0FC01DA
:100B80003383228390E080E00F90DF91CF9108952E
:100B900080915604E82FF0E0EE53FC4F998190834A
:100BA0008F5F809356048093550481E090E0ECCFF2
:100BB00061E0CE0101960E94F304F7CFCF92DF925D
:100BC000EF92FF920F931F93CF93DF93FC01C481A9
:100BD00021E02093C103C093E203109256041092C7
:100BE00055048385682B80E295E00E94AF05D09183
:100BF0005504D13208F092C00E94AB026B017C0117
:100C00008091BB03811165C082E08093BB0381E0CA
:100C10008093BA038FEF8093B9031092B803D093F7
:100C2000B703A2ECB3E0E7E9F3E080E0D81385C0B6
:100C30001092960380919603CC0FC82BC093960315
:100C400080919503813009F07CC0109295030E9439
:100C5000AB026B017C01809196038093BB00809175
:100C6000BD039091BE03A091BF03B091C003892B37
:100C70008A2B8B2B99F00E94AB020091BD0310913F
:100C8000BE032091BF033091C0036C197D098E090A
:100C90009F090617170728073907E0F18091BC0064
:100CA00083FDD9CF85EC8093BC000E94AB026B0121
:100CB0007C018091BB03823009F445C08091B90367
:100CC0008F3F61F18091B903803241F18091B90386
:100CD00025C08091BD039091BE03A091BF03B09148
:100CE000C003892B8A2B8B2B09F48ACF0E94AB027D
:100CF0000091BD031091BE032091BF033091C0034A
:100D00006C197D098E099F090617170728073907EF
:100D100008F076CF8091BC030E94380510925604EB
:100D2000109255041092C103DF91CF911F910F9142
:100D3000FF90EF90DF90CF9008959D9191938F5FFA
:100D400075CF85EEB0CF8091BD039091BE03A09189
:100D5000BF03B091C003892B8A2B8B2B09F4A9CF39
:100D60000E94AB020091BD031091BE032091BF030E
:100D70003091C0036C197D098E099F09061717076A
:100D80002807390708F095CFC5CFFC0120812EBD7B
:100D90009B012150310941F051810DB407FEFDCF77
:100DA0004EB55EBD4193F5CF61507109860F971F17
:100DB0000DB407FEFDCF2EB5FC0120830895E09110
:100DC000E403F091E50380819091E303892B808314
:100DD0000895E091E403F091E50390818091E303AD
:100DE00080958923808308958EBD00000DB407FE91
:100DF000FDCF8EB50895AF92BF92CF92DF92EF9262
:100E0000FF920F931F93CF93DF93CDB7DEB7289751
:100E10000FB6F894DEBF0FBECDBF8C017B016A0117
:100E2000809182048333E1F45801A40EB51EA0160C
:100E3000B10609F46FC00E94E90680EF0E94F40633
:100E4000812F0E94F406802F0E94F4060F5F1F4F2F
:100E5000F70181917F010E94F4060E94DF06E7CF2F
:100E60005B01A40EB51E8433C1F40E94E906198308
:100E70000A838D2D80688B83CC8264E070E0CE0184
:100E800001960E94C506AE14BF0409F441C0F701E3
:100E900081917F010E94F406F6CF0E94E9060F3F80
:100EA000110509F028F419820A8384E08B830CC0B1
:100EB00017FD17C019820A8333E0169507953A95F6
:100EC000E1F7007E0C600B8386E0C816D104A0F524
:100ED000F701DE011496EA15FB0599F081918D93D7
:100EE000FACFC80126E0969587952A95E1F7807E8E
:100EF00019830A830115104C10F48461D7CF8C61DB
:100F0000D5CFB6016D5F7F4FCE0101960E94C50619
:100F10000E94DF06C60128960FB6F894DEBF0FBE0A
:100F2000CDBFDF91CF911F910F91FF90EF90DF9098
:100F3000CF90BF90AF90089563E070E0CE0101962E
:100F40000E94C506F70181917F010E94F406AE144C
:100F5000BF04C1F7DDCFCF93DF931F92CDB7DEB7CC
:100F6000898341E050E0BE016F5F7F4F90E080E0F9
:100F70000E94FB060F90DF91CF91089590E02091A1
:100F80008204233339F40C96982F990F990F990FF7
:100F900080E008954896F8CFDA01E091E703F0E0A9
:100FA000FE2FEE27E60FF71F90E0982F8827A90164
:100FB000BD018E0F9F1F0C94FB06CF93DF9300D0D3
:100FC000CDB7DEB779836A8322E030E0AE014F5FB0
:100FD0005F4F60E170E00E94CC070F900F90DF91AF
:100FE000CF910895CF93DF9300D0CDB7DEB779834B
:100FF0006A8322E030E0AE014F5F5F4F64E070E053
:101000000E94CC070F900F90DF91CF910895CF935E
:10101000DF931F92CDB7DEB72091E70330E0322F88
:101020002227260F371F90E0982F8827498341E019
:1010300050E0BE016F5F7F4F820F931F0E94FB063F
:101040000F90DF91CF910895CF93DF931F92CDB78B
:10105000DEB76983DC01ED91FC910280F381E02D24
:1010600041E050E0BE016F5F7F4F09950F90DF9127
:10107000CF9108950895FC019485FB018485981310
:1010800003C081E0943008F080E00895CF93DF93AF
:101090001F92CDB7DEB76983DC01ED91FC91028030
:1010A000F381E02D41E050E0BE016F5F7F4F099575
:1010B0000F90DF91CF9108950895FF920F931F93A2
:1010C000CF93DF93EB01FC01178A168A2A81211145
:1010D00009C02B81211106C02C81211103C02D8153
:1010E000222301F141155105E9F08A01FC01F08C40
:1010F00080E591E00E948D01AE014E5F5F4F24E0DC
:1011000030E06CE070E08F2D0E94CC07B8018F2D8D
:101110000E94DD0781E090E0DF91CF911F910F9158
:10112000FF90089580E0F7CFFC01848595850895B0
:10113000FC018489958908952BEC31E0FC01318311
:101140002083FB014089518962897389FC014283B4
:101150005383648375830895DC01ED91FC91048CC5
:10116000F58DE02D099490E080E00895EF92FF92D4
:101170000F931F93CF93DF9300D000D000D0CDB753
:10118000DEB7DC01AB0118966D917C9119978D91BA
:101190009C911197FC012081318161157105B9F095
:1011A000D9015096ED91FC91099521E0019709F044
:1011B00020E0822F26960FB6F894DEBF0FBECDBF7B
:1011C000DF91CF911F910F91FF90EF900895F9015A
:1011D000E684F7842BEC31E03A83298314960D9151
:1011E0001D912D913C9117970B831C832D833E837A
:1011F000BE016F5F7F4FF701D7CFFC019485992324
:1012000069F080819181DC01ED91FC910688F7897C
:10121000E02D099591E0811101C090E0892F08959A
:10122000DC011C961C921C978D919C91009739F0C3
:10123000DC01ED91FC910488F589E02D0994089575
:10124000CF9380E390E00E94CE0483E894E00E9474
:101250001D04C82F8093300383E894E00E941D048E
:1012600020E03C2FA901482BCA01CF91089590E0BE
:1012700080E00E94CE0490E080E00C94CE0490E0E8
:1012800080E00E94CE0481E090E00C94CE04FC014A
:10129000768765870895DC01ED91FC9102A0F3A1AA
:1012A000E02D099591E089270895862F089581E022
:1012B0008627089521E0FC018485843008F020E031
:1012C000822F089508958F929F92AF92BF92EF92CE
:1012D000FF920F931F93CF93DF93CDB7DEB7A19704
:1012E0000FB6F894DEBF0FBECDBF7C01FA01CB0173
:1012F00019A2223008F42AE08E010F5D1F4F822EC2
:10130000912CB12CA12CBF01A50194010E9458334E
:10131000F901CA016A3074F5605DD8016E938D01E0
:10132000232B242B252B79F790E080E0109789F070
:10133000FD0101900020E9F73197AF014A1B5B0BDB
:10134000D701ED91FC910280F381E02DB801C70136
:101350000995A1960FB6F894DEBF0FBECDBFDF9101
:10136000CF911F910F91FF90EF90BF90AF909F9002
:101370008F900895695CD1CFFC0101900020E9F7BE
:101380003197AF01481B590BBC0182E695E00C94E4
:10139000E1038F929F92AF92BF92CF92DF92EF9232
:1013A000FF920F931F93CF93DF937C01EB016C01AE
:1013B00082E0C80ED11C4701E5E08E0E911C10E0C2
:1013C00000E0F60141916F0150E070E060E02AE03A
:1013D000CE010E9463095C01E881F9810190F081EE
:1013E000E02D6EE2CE0109958A0D9B1D080F191F95
:1013F000C814D90431F7F701458150E070E060E08E
:101400002AE0CE010E946309800F911FDF91CF91E6
:101410001F910F91FF90EF90DF90CF90BF90AF9012
:101420009F908F9008950F931F93CF938C01C62F99
:101430000E94DE056C2F6460C8010E94DE056C2FDF
:101440006B7FC8010E94DE0583EC90E00197F1F705
:10145000CF911F910F9108950F931F93CF93DF9317
:101460008C01D62FC42F607F642B0E94130A80E169
:10147000D89FB00111246C2BC801DF91CF911F912F
:101480000F910C94130ACF93DF93CDB7DEB7289753
:101490000FB6F894DEBF0FBECDBF98E0EDE2F1E0ED
:1014A000DE01119601900D929A95E1F790916A05EF
:1014B000961708F46FEF262F30E0220F331F41E01C
:1014C00050E04C0F5D1F240F351FF9016081680F3C
:1014D000606840E082E695E028960FB6F894DEBF9B
:1014E0000FBECDBFDF91CF910C942C0A60E087E056
:1014F0000E94430A8DEC91E00E94BC0961E087E004
:101500000E94430A8DEC91E00C94BC09FB018081A0
:1015100091810E94F92E892B81F081E090E00E9458
:10152000CE0481E090E00E94CE0461E087E00E945A
:10153000430A87ED91E00C94BC0981E090E00E94A1
:10154000CE0490E080E00E94CE0461E087E00E943B
:10155000430A81EE91E0EFCFFB01808191810E94EF
:10156000F92E21E0009709F420E020935A04892BFA
:1015700051F00E943F0961E087E00E94430A8CEE2F
:1015800091E00C94BC090E94370961E087E00E9459
:10159000430A86EF91E0F5CFFB01808191810E94A3
:1015A000F92E21E0009709F420E020935904892BBB
:1015B00061F061E085E00E94CF0160E087E00E9479
:1015C000430A81E092E00C94BC0960E085E00E944F
:1015D000CF0160E087E00E94430A8BE092E0F3CF06
:1015E00041E00E942C0A81E090E00895FB01808197
:1015F00091810E94F92E892B61F061E084E00E94C4
:10160000CF0160E087E00E94430A85E192E00C94FC
:10161000BC0960E084E00E94CF0160E087E00E94A6
:10162000430A8FE192E0F3CF0C94CC2DAF92BF929E
:10163000CF92DF92EF92FF920F931F93CF93DF939E
:1016400000D000D0CDB7DEB78C016B017A0180915C
:1016500082048333E9F45B016801C40ED51EC01611
:10166000D106A9F10E94E9068FE00E94F406812FBD
:101670000E94F406802F0E94F4060F5F1F4F80E047
:101680000E94F406F50181935F010E94DF06E7CF17
:10169000843369F50E94E90619830A838F2D8F77B9
:1016A0008B83EC8264E070E0CE0101960E94C50657
:1016B000A70170E060E0C6010E945B35E114F1040F
:1016C00021F0B701C6010E94C5060E94DF06C701CE
:1016D0000F900F900F900F90DF91CF911F910F916E
:1016E000FF90EF90DF90CF90BF90AF9008950E9451
:1016F000E9060F3F110509F030F419820A831B82B5
:1017000063E070E0D1CF17FD0BC019820A8333E08C
:10171000169507953A95E1F7007E08600B83F0CFA8
:10172000C80126E0969587952A95E1F7807E198372
:101730000A830115104C18F480618B83E1CF886116
:10174000FCCFCF93DF931F92CDB7DEB72091E70395
:1017500030E0322F2227260F371F90E0982F88275E
:1017600041E050E0BE016F5F7F4F820F931F0E94E8
:10177000160B89810F90DF91CF910895CF93C82FD9
:10178000462F61E070E00E94070861E070E08C2F56
:101790000E94A10B8111F9CFCF910895CF93C82F4B
:1017A00080E591E00E948D0168E070E08C2FCF9180
:1017B0000C94BE0BCF93C82F80E591E00E948D0161
:1017C00060E170E08C2FCF910C94BE0BCF93DF9330
:1017D000EC01888D843020F40E94DA0B84E0888F3D
:1017E000DF91CF910895CF93C82F80E591E00E94BB
:1017F0008D0163E070E08C2FCF910C94A10BCF93FF
:10180000DF93EC018C858430D0F40E94F30B84319B
:1018100089F0882379F0883169F021E08C3159F41E
:10182000E881F9810084F185E02DCE01099521E060
:10183000892B09F420E0822FDF91CF91089580E079
:10184000FBCFCF92DF92EF92FF92CF93DF93EC0129
:101850008C85843068F40E94CE0B0E9403036B01D8
:101860007C018C850E94F30B811109C084E08C8778
:10187000DF91CF91FF90EF90DF90CF90089561E0DE
:1018800070E080E090E00E94D0020E940303AB0170
:10189000BC014C195D096E097F098D859E85B0E0FC
:1018A000A0E0481759076A077B07D8F28C850E9489
:1018B000DA0BDCCFCF93FC01C08D80E591E00E9474
:1018C0008D0160E270E08C2F0E94BE0B62E070E040
:1018D0008C2F0E94A10B84FD16C062E070E08C2F5B
:1018E0000E94A10B83FF0AC048E162E070E08C2FE8
:1018F0000E94070880E090E0CF91089580E591E094
:101900000E948D01E3CF40E162E070E08C2F0E94E5
:10191000070881E0F0CFCF93DF931F92CDB7DEB7FA
:1019200041E050E0BE016F5F7F4F90E080E00E9499
:10193000160B89810F90DF91CF910895CF93DF939C
:10194000C4E1D0E00E948B0C882361F061E070E07C
:1019500080E090E00E94D0022197A1F780E0DF9123
:10196000CF91089581E0FBCF1F93CF93DF931F9218
:10197000CDB7DEB7182F80E591E00E948D01812F51
:101980000E94BE0727E0129FF0011124EA59FB4F85
:1019900022813381377041E050E0BE016F5F7F4F9D
:1019A000820F931F0E94160B89810F90DF91CF91B8
:1019B0001F910895FC01808D843040F4218D328D7B
:1019C000232B21F00E94B40C90E008958FEF9FEF3D
:1019D0000895CF93DF93FC012485243028F08FEF06
:1019E0009FEFDF91CF910895EC010190F081E02D00
:1019F0000084F185E02D0995892B89F38C850E945F
:101A0000B40C90E0EECFDA01E091E703F0E0FE2FB6
:101A1000EE27E60FF71F90E0982F8827A901BD0158
:101A20008E0F9F1F0C94160B8F929F92AF92BF92B6
:101A3000CF92DF92EF92FF921F93CF93DF93CDB7B8
:101A4000DEB72C970FB6F894DEBF0FBECDBF209146
:101A5000820414E0222339F16B017C0180E591E0DE
:101A60000E948D015E0127E0A20EB11C450110E02D
:101A700063E070E0812F0E94A10BF40181934F017C
:101A8000882349F11F5F143099F710E0F501819127
:101A90005F018D31D9F08831C9F08A518230B0F0C0
:101AA0001F5F143099F7812F2C960FB6F894DEBF84
:101AB0000FBECDBFDF91CF911F91FF90EF90DF90D0
:101AC000CF90BF90AF909F908F90089560E170E0AD
:101AD000812F0E94BE0BA12EB12C83EE93E00197C3
:101AE000F1F742E870E060E0812F0E9407084FEFB5
:101AF00062E070E0812F0E940708B601C114D10492
:101B000091F4809121019091220101968115F0ECD0
:101B10009F0708F45CC0909322018093210160919B
:101B2000210170912201812F0E94F20786E0E5E3F6
:101B3000F1E0DE01119601900D928A95E1F7F7012F
:101B400083818F778C8384818D8385818E83A701A8
:101B50004E5F5F4F24E030E06CE070E0812F0E9428
:101B6000CC07B601812F0E94DD0726E030E0AE01F0
:101B70004F5F5F4F66E070E0812F0E94CC0761E00D
:101B800070E0812F0E94BE0B27E02A9DC0012B9D93
:101B9000900D11249C012A593B4F7901F9011182C2
:101BA000108222E030E0AE01455F5F4F68E270E0F6
:101BB000812F0E94030D8B859C8598278927982764
:101BC000F701938382831682158214826CCF80E0A2
:101BD00090ECA1CFCF92DF92EF92FF920F931F93E1
:101BE000CF93DF9300D000D000D0CDB7DEB78C010B
:101BF0006B017A01FC01808D843010F40E94DA0BB5
:101C00008BEC91E09A838983F60182819381A48190
:101C1000B5818B839C83AD83BE83B701CE010196D2
:101C20000E94140DF801808F8430A0F4F586E486BC
:101C3000128E118E81E026960FB6F894DEBF0FBE8D
:101C4000CDBFDF91CF911F910F91FF90EF90DF906B
:101C5000CF90089580E0EFCFAF92BF92CF92DF9206
:101C6000EF92FF920F931F93CF93DF9300D000D09A
:101C700000D0CDB7DEB7082F6B0180E591E00E9460
:101C80008D019E012F5F3F4F7901590110E063E004
:101C900070E0812F0E94A10BF50181935F018823E1
:101CA00041F11F5F143099F710E0F70181917F0136
:101CB0008D31D1F08831C1F08A518230A8F01F5F98
:101CC000143099F7812F26960FB6F894DEBF0FBE19
:101CD000CDBFDF91CF911F910F91FF90EF90DF90DB
:101CE000CF90BF90AF90089560E170E0812F0E9487
:101CF000BE0BE12EF12C83EE93E00197F1F7402F1C
:101D000070E060E0812F0E9407084FEF62E070E012
:101D1000812F0E940708B601CD2889F48091210106
:101D20009091220101968115F0EC9F0798F1909314
:101D30002201809321016091210170912201812F64
:101D40000E94F20761E070E0812F0E94BE0B27E045
:101D50002E9DC0012F9D900D11249C012A593B4FAF
:101D60007901F9011182108222E030E0AE014B5F6F
:101D70005F4F68E270E0812F0E94030D8D819E818C
:101D8000982789279827F7019383828316821582E3
:101D9000148298CF80E090ECCACFCF92DF92EF927E
:101DA000FF921F93CF93DF93EC017B016A018C8537
:101DB000843048F40E94F30B882319F08C850E942C
:101DC000CE0B84E08C87F70182819381A481B58159
:101DD0000097A105B10551F490E080E0DF91CF912B
:101DE0001F91FF90EF90DF90CF9008958F3F9F4F0E
:101DF000AF4FBF4F89F380918204811103C084E00B
:101E00008C87EACF70E060E081E20E942C0E182FF0
:101E10008C87843008F780E591E00E948D01A7014E
:101E20004E5F5F4F24E030E06CE070E0812F0E9455
:101E3000CC07B601812F0E94DD0764E070E0812F9E
:101E40000E94BE0B0E9403036B017C018C850E94E3
:101E5000F30B873109F18C31F9F0882309F4BCCFF9
:101E60000E940303AB01BC014C195D096E097F0997
:101E70008D859E85B0E0A0E084179507A607B7077B
:101E800038F061E070E080E090E00E94D002DECFA8
:101E90008C850E94DA0BB3CF81E090E09FCF0F9347
:101EA0001F93CF93DF93EC018B01888D843010F466
:101EB0000E94DA0B80918204811107C094E0988F10
:101EC000DF91CF911F910F910895B80182E00E9498
:101ED0002C0E888F843030F41D870C871A8E198E53
:101EE00081E0EECF80E0ECCF7F928F929F92AF9215
:101EF000BF92CF92DF92EF92FF920F931F93CF93F7
:101F0000DF9300D0CDB7DEB7782E8B014A0159019F
:101F100022E030E0AE014F5F5F4F64E270E00E946C
:101F2000030DE980FA80FE24EF24FE24E00EF11E6A
:101F30009701377040918204072D10E0433309F078
:101F400042C0085F1F4F102F0027110F110F110FF4
:101F5000C901800F911F4733C9F1A9014A0D5B1DCB
:101F60004130584098F160E078E06B01C21AD30A22
:101F7000A601B4010E94FB06A5014C195D09B4013C
:101F80006C0D7D1DC8010E94FB06EA0CFB1CF9824A
:101F9000EA8222E030E0AE014F5F5F4F64E270E022
:101FA000872D0E94CC070F900F90DF91CF911F914A
:101FB0000F91FF90EF90DF90CF90BF90AF909F90E8
:101FC0008F907F900895005F1F4FBDCFA501B40192
:101FD000DACFEF92FF921F93CF93DF9300D0CDB76C
:101FE000DEB7182F22E030E0AE014F5F5F4F60E2B6
:101FF00070E00E94030DE980FA80FE24EF24FE24A5
:1020000022E030E0AE014F5F5F4F60E270E0812F71
:102010000E94030D89819A81982789279827E816BD
:10202000F90689F487E0189FF0011124EA59FB4F63
:10203000F582E482C7010F900F90DF91CF911F913D
:10204000FF90EF9008957C01DBCF1F93CF93DF9338
:10205000182F80E591E00E948D01812F0E94E90FE9
:10206000EC0163E070E0812F0E94A10B873121F029
:102070008C3111F0D0E0C0E0CE01DF91CF911F9103
:102080000895CF93DF93EC018C85843060F40E9437
:10209000F30B873111F08C3131F48C850E942510BF
:1020A0008115984088F3DF91CF910895FC018485D4
:1020B000843010F40C94251090E080E008959F92F5
:1020C000AF92BF92CF92DF92EF92FF920F931F9346
:1020D000CF93DF938C015B01942EE52EFC01C68823
:1020E000D788F08C80E591E00E948D018F2D0E94B1
:1020F000E90FC92DDE2D8C179D0708F4EC019E0118
:10210000A501B6018F2D0E94740FF8018689978969
:102110008C0F9D1F978B868BCE01DF91CF911F91E6
:102120000F91FF90EF90DF90CF90BF90AF909F9076
:1021300008958F929F92AF92BF92CF92DF92EF92CB
:10214000FF920F931F93CF936C015B018A01FC01F7
:10215000C485C430F0F57A014130584018F0E12CC4
:1021600088E0F82E80E591E00E948D018C2F0E947E
:10217000E90F4C0163E070E08C2F0E94A10B8731C6
:1021800011F08C3149F58E149F0460F380E591E0E5
:102190000E948D019701A50170E060E08C2F0E94E4
:1021A000740F60E270E08C2F0E94BE0B62E070E062
:1021B0008C2F0E94A10B84FD17C063E070E08C2F70
:1021C0000E94A10B81110BC081E090E0F601938386
:1021D000828310E000E010C0F12CE12CD7CF80E525
:1021E00091E00E948D01E2CF40E162E070E08C2F2F
:1021F0000E940708EF2841F3C801CF911F910F916A
:10220000FF90EF90DF90CF90BF90AF909F908F9016
:102210000895FF920F931F93CF93DF9300D0CDB714
:10222000DEB7F82E22E030E0AE014F5F5F4F66E28E
:1022300070E00E94030D09811A81102701271027E1
:1022400022E030E0AE014F5F5F4F66E270E08F2D1D
:102250000E94030D89819A8198278927982708175A
:10226000190749F4C8010F900F90DF91CF911F918A
:102270000F91FF9008958C01E3CF1F93CF93DF93CD
:10228000182F87E0189FE0011124CA59DB4F88817D
:102290009981009761F480E591E00E948D01812F82
:1022A0000E9409112E81821B910999838883DF91F5
:1022B000CF911F910895FC018485843010F40C9413
:1022C0003D1190E080E008954F925F927F928F924F
:1022D0009F92AF92BF92CF92DF92EF92FF920F93B5
:1022E0001F93CF93DF9300D0CDB7DEB7782E6B016D
:1022F0004A01A82EB12C27E0829FC0011124FC01C5
:10230000EA59FB4F7F010081118180E591E00E9435
:102310008D010815190554F4872D0E940911F70144
:1023200026818C01021B11091183008301151105FF
:1023300029F563E070E0872D0E94A10B843159F0EC
:10234000882349F001E010E08C3111F410E000E046
:10235000119501951109C8010F900F90DF91CF9150
:102360001F910F91FF90EF90DF90CF90BF90AF90B3
:102370009F908F907F905F904F9008958016910668
:102380000CF4840187E08A9DF0018B9DF00D1124EF
:10239000EA59FB4FE280F380C114D10451F12701C7
:1023A000F7E05F22872D0E94BE07840D951D2091C6
:1023B0008204273309F453C09801240D351D2130C0
:1023C000384008F44CC020E038E0490184189508F2
:1023D000A401B6010E94160B2601480C591C680185
:1023E000C818D908872D0E94BE07A601B2010E9415
:1023F000160BE00EF11E87E08A9DF0018B9DF00D1B
:102400001124EA59FB4FF382E28220813181201BA3
:10241000310B318320838681800F912F911D8A3F5C
:10242000910510F4232BF1F487E08A9DF0018B9D38
:10243000F00D1124EA59FB4F1682F982EA8222E05C
:1024400030E0AE014F5F5F4F68E270E0872D0E9481
:10245000CC0760E470E0872D0E94BE0B7CCFA80102
:10246000B601C5CF868377CFCF93DF93FC01218D53
:10247000328D2115310529F48FEF9FEFDF91CF9138
:102480000895EC01808D4217530708F0A9010E94BE
:1024900064111816190684F7298D3A8D281B390BFB
:1024A0003A8F298FEBCF0F931F93CF93DF931F9218
:1024B000CDB7DEB7FC01218D328D232B41F48FEF98
:1024C0009FEF0F90DF91CF911F910F9108958C0195
:1024D00041E050E0BE016F5F7F4FFC01808D0E94A4
:1024E0006411181619065CF7F801818D928D019719
:1024F000928F818F898190E0E4CFCF93DF931F92F9
:10250000CDB7DEB741E050E0BE016F5F7F4FFC0109
:1025100084850E9464111816190634F4898190E0AC
:102520000F90DF91CF9108958FEF9FEFF9CFFC01CE
:102530008485843010F40C94641190E080E0089558
:102540000F931F93CF93DF9300D0CDB7DEB7FC017D
:1025500024852430E0F48C0180E591E00E948D0117
:1025600022E030E0AE014F5F5F4F60E170E0F801C4
:1025700084850E94030D89819A819827892798274D
:102580000F900F90DF91CF911F910F91089590E0E0
:1025900080E0F6CF0F931F93CF93DF9300D0CDB79A
:1025A000DEB7FC0124852430E0F48C0180E591E065
:1025B0000E948D0122E030E0AE014F5F5F4F64E08A
:1025C00070E0F80184850E94030D89819A81982723
:1025D000892798270F900F90DF91CF911F910F912E
:1025E000089590E080E0F6CFDC018BEC91E08D93D4
:1025F0009D9384E0FB0101900D928A95E1F7089587
:10260000EF92FF920F931F93CF93DF9300D000D0F0
:10261000CDB7DEB78C017B01FB0184858430A8F047
:102620008BEC91E0F80191838083128213821482F3
:102630001582C8010F900F900F900F90DF91CF91EE
:102640001F910F91FF90EF90089580E591E00E9417
:102650008D0124E030E0AE014F5F5F4F6CE070E031
:10266000F70184850E94030DBE016F5F7F4FC80193
:102670000E94F412DECF0F931F93CF93DF93CDB759
:10268000DEB728970FB6F894DEBF0FBECDBF8C0122
:10269000D80159964D915C915A974115510551F0C9
:1026A000ED91FC91048CF58DE02D70E060E0C801A7
:1026B0000995EECFF801808D0E943D11892BB1F173
:1026C00048E050E0BE016F5F7F4FD80158968C9173
:1026D0000E94641118161906F4F4D801509684E08B
:1026E000FE01319601900D928A95E1F78D8190E07F
:1026F000982F88272E81820F911DF801958B848B4E
:102700008F81282F30E0322F22278885820F932F48
:10271000911D928F818F28960FB6F894DEBF0FBE61
:10272000CDBFDF91CF911F910F91089590E080E090
:10273000F2CF4F925F926F927F928F929F92AF9261
:10274000BF92CF92DF92EF92FF920F931F93CF939E
:10275000DF93CDB7DEB763970FB6F894DEBF0FBE39
:10276000CDBF7C016B013A01FB0120E090E080E0ED
:102770006AE03191332309F461C040ED430F4A30E0
:1027800008F04DC0689FA001699F500D1124CA0137
:10279000C097830F911D37FD9A958F3F910549F39F
:1027A00040F3F7014281538164817581809158051E
:1027B00090915905A0915A05B0915B0548175907AA
:1027C0006A077B0709F40DC28701085F1F4F0E944B
:1027D00003036F7077277C5FC8010E944F0F813021
:1027E00009F004C28BEC91E09A838983F70182811E
:1027F0009381A481B5818B839C83AD83BE8345E3A4
:1028000050E0BE016F5F7F4FC8010E945D08892BB9
:10281000A9F5D12CC12CC8010E94E60B17C03E328D
:1028200009F0BFCF233009F4BCCFD301A20FB11DF3
:1028300012968C932F5F90E080E09BCF233009F0BD
:10284000B0CFF3018583CC24C394D12CC601639609
:102850000FB6F894DEBF0FBECDBFDF91CF911F91B1
:102860000F91FF90EF90DF90CF90BF90AF909F902F
:102870008F907F906F905F904F9008950E94030318
:10288000F7017783668342E050E0B7016A5F7F4FCC
:10289000C8010E945F1081E090E09A83898342E042
:1028A00050E0BE016F5F7F4FC8010E945F1080E063
:1028B00091E09A83898342E050E0BE016F5F7F4FD1
:1028C000C8010E945F101A82198242E050E0BE01E6
:1028D0006F5F7F4FC8010E945F1042E050E0BE0171
:1028E0006F5F7F4FC8010E945F1042E050E0BE0161
:1028F0006F5F7F4FC8010E945F105601F601808113
:10290000882301F16501F60181912F01882311F0DF
:102910008E32B1F446018A189B081814190474F415
:102920008D8641E050E0BE01635F7F4FC8010E9489
:102930005F10A401B501C8010E945F105201DECFF3
:102940006201E1CF1D8641E050E0BE01635F7F4F31
:10295000C8010E945F10C12CDD24D394DA82C982A1
:1029600042E050E0BE016F5F7F4FC8010E945F10E0
:10297000DA82C98242E050E0BE016F5F7F4FC8013A
:102980000E945F10C8010E945A0C892B09F441CFA4
:10299000F3E0AF2EB12C230122E0420E511CD4C033
:1029A000F7014281538164817581808D918DA28D63
:1029B000B38D481759076A077B0709F008C1848D52
:1029C000958DC59709F003C181A192A15DEFC52E38
:1029D000DD24DA940C970CF4ADC04CE050E0BE015D
:1029E0006F5F7F4FC8010E9434128B819C819827B2
:1029F000892798279A8B898BF701468157812981EE
:102A00003A814217530709F0E7C097FFE5C08F707E
:102A100092703BEFC32EDD24DA94892B09F08AC033
:102A20006F8078847624672476242AEFC22EDD24F2
:102A3000DA946114710409F47DC0D12CC12C8D810C
:102A40009E81982789279827C816D906F8F441E06F
:102A500050E0BE01635F7F4FC8010E9434124D8574
:102A6000442331F050E070E060E0C8010E9434126D
:102A70008D858111ECCF44E050E070E060E0C8014A
:102A80000E943412FFEFCF1ADF0AD9CF912C812C8C
:102A900041E050E0BE016D5E7F4FC8010E943412DC
:102AA0004B89842F807C09F06CC0442331F050E0C6
:102AB00070E060E0C8010E9434128B898111E8CF78
:102AC00042E050E0BE01615F7F4FC8010E943412B6
:102AD00042E050E0BE01635F7F4FC8010E943412A4
:102AE00044E050E070E060E0C8010E94341242E02F
:102AF00050E0BE016F5E7F4FC8010E9434128F8587
:102B0000988949895A898115914009F043C0CD843B
:102B1000DE84DC24CD24DC2481E0C816D104D1F588
:102B20004115544009F04AC044E050E0B201C801E8
:102B30000E94341221E0A21AB10809F46CCEFFEF12
:102B4000CF16DF0609F067CE0E9403033B014C015C
:102B5000C8010E943B13181619060CF421CF0E94DD
:102B60000303661977098809990969387341810552
:102B7000910548F562E370E080E090E00E94D002A9
:102B8000E7CF41E050E070E060E0C8010E943412FD
:102B90001B8A93CF54274527542770E060E0C80173
:102BA0000E943412FFEF8F1A9F0A6814790409F00B
:102BB0006FCF96EFC92EDD24DA94BCCFE7EFCE2E8F
:102BC000DD24DA94B7CFCC24CA94DC2CB3CF6EEFDB
:102BD000C62EDD24DA94AECF4CEFC42EDD24DA9479
:102BE000A9CF8EEFC82EDD24DA9430CED12CC12CA3
:102BF0002DCECF92DF92EF92FF920F931F93CF9340
:102C0000DF93CDB7DEB7AF970FB6F894DEBF0FBE38
:102C1000CDBF7C016A010BEC11E01A8309831C868D
:102C20001B8688EE93E0A0E0B0E08D879E87AF879B
:102C3000B88B8FE391E09A878987188F0F8B198E55
:102C40001A8E1B8E1C8E84E089A31BA70AA71CA6C4
:102C50001DA61EA61FA680914C0590914D05A09122
:102C60004E05B0914F058EA39FA3A8A7B9A78B834C
:102C70009C83AD83BE8318861F82AE01465D5F4F85
:102C8000CE0101960E94991381309105B1F4D701CC
:102C9000ED91FC910488F589E02D1DA30CA38CA572
:102CA0009DA5AEA5BFA58EA39FA3A8A7B9A7A60162
:102CB000BE016C5D7F4FC7010995AF960FB6F894C2
:102CC000DEBF0FBECDBFDF91CF911F910F91FF905F
:102CD000EF90DF90CF900895CF92DF92EF92FF9226
:102CE0000F931F93CF93DF93CDB7DEB7AF970FB698
:102CF000F894DEBF0FBECDBF8C016B017A018BEC67
:102D000091E09A8389831B821C821D821E821C860D
:102D10001B8648EE53E060E070E04D875E876F876A
:102D2000788B2FE331E03A872987988F8F8B198E24
:102D30001A8E1B8E1C8E24E029A39BA78AA71CA693
:102D40001DA61EA61FA6D8011C968C91843060F487
:102D50000E94F30B882321F0F80184850E94CE0B9A
:102D600084E0D8011C968C9380914C0590914D0580
:102D7000A0914E05B0914F058EA39FA3A8A7B9A718
:102D80008B839C83AD83BE8318861F82AE01465D14
:102D90005F4FB601CE0101960E9499130097C1F0D2
:102DA000D801ED91FC910684F785E02D8BEC91E044
:102DB0009DA38CA38CA59DA5AEA5BFA58EA39FA307
:102DC000A8A7B9A7A701BE016C5D7F4FC8010995EF
:102DD000AF960FB6F894DEBF0FBECDBFDF91CF9197
:102DE0001F910F91FF90EF90DF90CF9008957F9209
:102DF0008F929F92AF92BF92CF92DF92EF92FF920B
:102E00000F931F93CF93DF93CDB7DEB7A6970FB67F
:102E1000F894DEBF0FBECDBF8C01762E942E852E8A
:102E200020E2A22ECE0101967C01DC01EA2D1D924A
:102E3000EA95E9F76801F3E4CF0ED11C8BEC91E041
:102E40009AA389A38FEF8BA38CA38DA38EA343E4B6
:102E500050E0BE016F5D7F4FC6010E945D08019684
:102E600009F4BFC081E089838A8386E0B82EBB82E3
:102E70001C82D80114966D917D918D919C9117972C
:102E80000E9410346D837E838F83988789869A860B
:102E900080E890E09C878B874CE150E0B701C60149
:102EA0000E945F10FE0137968AE1DF011D928A952C
:102EB000E9F74801B8E08B0E911CF401D7010190AD
:102EC0000D92BA94E1F740E150E0B701C6010E94CB
:102ED0005F10F7011192AA94E9F796E0A92EB12CA0
:102EE00040E250E0B701C6010E945F10F1E0AF1A66
:102EF000B108B1F783E6898392E89A8393E59B83CF
:102F00008C8385E38D8381E08E837F829DE3988728
:102F100097E099878A8786E0F401DE011B9601908D
:102F20000D928A95E1F78CE0898B8A8B69E272E0D9
:102F3000CE0143960E946B35D8011B966C91CE0151
:102F400049960E949001F8016485CE014B960E943B
:102F50009001D8011D966C91CE014D960E94900172
:102F60004EE150E0B701C6010E945F10B3E07B1252
:102F70001EC082E3898384E08A83F80196859B835F
:102F800097859C8390899D8391899E8396E39F83F7
:102F90008887828D8987838D8A87848D8B87858DAD
:102FA0008C874CE050E0B701C6010E945F1087E3B8
:102FB000898386E08A8391E09B8393E09C838D8361
:102FC0008FE08E838AE38F838BE388878FEF8987F7
:102FD00049E050E0B701C6010E945F10C6010E949F
:102FE0005A0CA6960FB6F894DEBF0FBECDBFDF9188
:102FF000CF911F910F91FF90EF90DF90CF90BF90F6
:10300000AF909F908F907F9008950F931F93CF93D1
:10301000DF93EC01FB0101900020E9F78F01061B13
:10302000170B8A819B81A801480F591F2C813D8174
:103030002417350768F028813981A801820F931F72
:103040000E9452354A815B81400F511F5B834A8346
:10305000DF91CF911F910F9108956115710599F43A
:10306000DC01ED91FC91119712962D913C911397F3
:10307000A9014F5F5F4F13965C934E931297E20F37
:10308000F31F108208950C94051885ED8093BC0001
:103090008091BD039091BE03A091BF03B091C00386
:1030A0000796A11DB11D23E0B695A7959795879525
:1030B0002A95D1F72091BC0024FD03C01092BB03D8
:1030C00008954091BD035091BE036091BF0370917C
:1030D000C003452B462B472B69F30097A105B1058B
:1030E00041F02AE22A95F1F700C00197A109B10940
:1030F000E1CF8091BC030C9438053F924F925F92D0
:103100006F927F928F929F92AF92BF92CF92DF92F7
:10311000EF92FF920F931F93CF93DF93CDB7DEB75C
:10312000EA970FB6F894DEBF0FBECDBF7C012A012F
:103130003B0169010E9403034B015C0187010D5BA8
:103140001F4FC8010E943B13181619069CF00E94DD
:103150000303681979098A099B0946165706680608
:10316000790608F466C162E370E080E090E00E94B6
:10317000D002E7CF42E250E0BE016F5F7F4FC8014F
:103180000E94341289818230D1F0312C832DEA964D
:103190000FB6F894DEBF0FBECDBFDF91CF911F9168
:1031A0000F91FF90EF90DF90CF90BF90AF909F90E6
:1031B0008F907F906F905F904F903F900895F801AF
:1031C000848995898334910501F76D817E818F8192
:1031D00098850E9410344B015C01F6018082918237
:1031E000A282B38246E050E0B701685F7F4FCE0114
:1031F0004D960E944535892B41F6F70180819181DA
:10320000A281B38188169906AA06BB0608F4BDCF31
:1032100084819581A681B78188159905AA05BB058A
:1032200008F4B3CF89899A89AB89BC898687978747
:10323000A08BB18B4EEC50E070E060E0C8010E94C2
:103240003412312CC701829698AB8FA7F701B6963E
:10325000FAABE9AB08969CAB8BAB67019AE1C90E60
:10326000D11CBD96FEABEDABC701429698AF8FABBC
:10327000FD97FAAFE9AF4701FEE18F0E911CF8010F
:10328000818D928D181619060CF080CFC8010E940E
:1032900053128333910509F4B2C014F581309105BE
:1032A00009F464C044F4892B51F3C8010E945312FD
:1032B000AC01552775C08330910509F462C00697AB
:1032C000A1F7C8010E945312B82E44E050E0B401A7
:1032D000C8010E943412EB2DE450FF0BAF0160C017
:1032E0008A33910509F45FC084F585339105B1F106
:1032F000C697D9F6C8010E9453125C01B601CE01EF
:1033000089960E94F4128BA59CA5ADA5BEA5892B1C
:103310008A2B8B2BB1F0EDA9FEA9408051806280F1
:103320007380B601CE0183960E94F4128DA19EA1F6
:10333000AFA1B8A5A501481659066A067B0609F093
:10334000B8CF44E050E0B60118C08B33910509F4C2
:1033500040C08F3F910509F492CFA7CFC8010E94CA
:103360005312C8010E945312382E89CFC8010E94FF
:10337000531244E050E06FA978ADC8010E943412A6
:103380007ECFC8010E945312B82E44E050E069ADD0
:103390007AADC8010E9434128B2D8450990BAC0178
:1033A00070E060E0EACFC8010E94531244E050E0B0
:1033B00069A97AA9C8010E943412F70166A177A110
:1033C00080A591A50E94103466A377A380A791A73A
:1033D00056CFC8010E94531244E050E06BA97CA96B
:1033E000C8010E943412F70162A573A584A595A5B2
:1033F0000E94103462A773A784A795A740CFC80185
:103400000E94531244E050E06FA578A9C8010E94C1
:103410003412F70162A173A184A195A10E94103416
:1034200062A373A384A395A366A777A780AB91AB90
:1034300026CF33243A94AACE0F931F93CF93DF93D2
:10344000CDB7DEB728970FB6F894DEBF0FBECDBF5D
:103450008C01CB014AE0BE016F5F7F4F0E94472F76
:10346000BE016F5F7F4FC8010E94051828960FB6F6
:10347000F894DEBF0FBECDBFDF91CF911F910F91AA
:1034800008953F924F925F926F927F928F929F9298
:10349000AF92BF92CF92DF92EF92FF920F931F9362
:1034A000CF93DF93CDB7DEB7A1970FB6F894DEBF09
:1034B0000FBECDBF5C010DB71EB719A308A360E016
:1034C00070E0CB010E94D002D50191968D919C9124
:1034D0009297912C029709F498C090968C919097AE
:1034E0008F5F90968C9390975E962D913C91232BB5
:1034F00019F09924939482C08330D8F7F50182851E
:1035000093850E94FD08882309F43EC38E010F5F56
:103510001F4F3801D5011A96ED91FC918081918160
:10352000DC01ED91FC910084F185E02D09951816E0
:1035300019060CF029C3D5011A96ED91FC9145E0CE
:1035400050E0BE01695E7F4F808191810E949103AE
:10355000009701F3059709F04AC0888D998D982747
:1035600089279827998F888FEA8CFB8CFE24EF247B
:10357000FE24FB8EEA8E892BD1F18F8981116AC0DE
:103580000E940303F501608B718B828B938B21A1C9
:1035900032A14A8D5B8D232B09F057C0288D398DC0
:1035A0002130310509F051C049305105E1F0483C66
:1035B000510519F044305105D1F4D50158966D9359
:1035C0007D938D939C935B97E1E0F0E09296FC9362
:1035D000EE939197C5010E94692460E070E0CB01F1
:1035E0000E94D00297CF83E090E092A381A3D501FF
:1035F0001A968D919C910E941009912CD50190965C
:103600008C919097815090968C93892DE8A1F9A187
:103610000FB6F894FEBF0FBEEDBFA1960FB6F8949B
:10362000DEBF0FBECDBFDF91CF911F910F91FF90F5
:10363000EF90DF90CF90BF90AF909F908F907F9052
:103640006F905F904F903F9008954530510509F07D
:1036500061CFCDCFF50182859385F1E0EF16FF06AE
:1036600040F0D50192961C921E9291970E941009EB
:1036700051CF8DB69EB697012F5F3F4FEDB7FEB786
:10368000E21BF30B0FB6F894FEBF0FBEEDBF0DB7F4
:103690001EB70F5F1F4FA701B801DC018D919C91F0
:1036A0000E9491038E159F0509F05FC0EA8DFB8D86
:1036B000E00FF11F10820E940303F501608B718BF4
:1036C000828B938B8F89843109F4ABC0E8F48F30FF
:1036D00009F4A7C0813109F43AC2863009F04CC21E
:1036E000488D598DD12CC12CF12CE12C08EC10E027
:1036F00030E020E060E0C5010E94B71E0FB6F894EC
:103700009EBE0FBE8DBE06CF8932C9F08733B1F39E
:103710008D3109F031C2D50181A192A1892B01F728
:10372000E1E0F0E09296FC93EE939197C5010E9440
:10373000692460E070E0CB010E94D002D1CF868581
:103740009785892B39F480E490E00E94302DF501B3
:1037500097878687EA8CFB8CE00EF11E1A8309831B
:10376000FC82EB820E151F0530F00FB6F8949EBE5A
:103770000FBE8DBE3CCF40E450E0B801D5011E968F
:103780008D919C910E947235D5011E96ED91FC9110
:1037900017AEC3010E944724FC018081918100E59E
:1037A00010E08E159F0560F489819A810097A9F138
:1037B0002B813C818217930780F50E94172F8B0184
:1037C000D5011A968D919C910E941009D5011A96E7
:1037D000ED91FC911B971E968D919C911F9791875F
:1037E00080871387028792961C921E9291970E945F
:1037F0000303DC01CB0188589341A109B109F5010C
:10380000848B958BA68BB78B808B918BA28BB38B84
:10381000808F918FA28FB38F71CF60E070E0CB016A
:10382000CECF888D998DD5015F969C938E935E97B0
:103830004A8C5B8C6801C40CD51C1D8F0C8FDF8EED
:10384000CE8E0C151D0508F013C1F801E080F18043
:10385000CE014C960E944724DC018D919C918C15E1
:103860009D0508F005C18C8D9D8DFC0120812134C2
:1038700059F401960E94F92E4EE0342E380E069728
:1038800044F033243A9405C0CE014C960E945A2449
:10389000382EF6E7EF16F2E7FF0609F406C138F511
:1038A00031E6E31632E7F30609F4E6C044E6E4162F
:1038B00042E7F40609F478C050E7E5165DE6F50640
:1038C00009F037C18C8D9D8D8C159D0508F0D0C0F9
:1038D000FC0120812134A9F501960E94F92E3EE0D9
:1038E000F32EF80E069794F1FF24FA942FC084E685
:1038F000E81687E7F80609F4A2C096E7E91697E705
:10390000F90609F4E9C0A1E6EA16A7E7FA0609F004
:1039100010C1CE014C960E944724DC018D919C91F0
:103920008C159D0508F0A4C061E0832D0E94FD0167
:10393000CE014C960E945A24BC01832D0E9439026C
:1039400097C0CE014C960E945A24F82ECE014C9678
:103950000E9447240C8D1D8D60E372E0C8010E9417
:10396000623560E0892B79F063E372E0C8010E9460
:103970006235892B39F067E372E0C8010E94623535
:10398000892B49F461E08F2D0E94FD01CE014C96F8
:103990000E94472497CF6BE372E0C8010E94623512
:1039A000892BA1F762E0EFCF7A8A698A1C8A1B8A89
:1039B00000E110E01E8B0D8B6EE372E0CE014196AC
:1039C0000E940518032D10E0B801CE0141960E9417
:1039D0001C1AF801E45DFD4F8491F801E85EFD4F8B
:1039E000F4900C5F1D4FF801049160E070E000233B
:1039F00089F081110E94A601E02FF0E0EE0FFF1F79
:103A0000E650FE4FA591B491EC91FE2261E070E08A
:103A100009F460E0CE0141960E941C1A0B891C89B2
:103A20000150110929893A89D12CC12CF12CE12CA2
:103A300050E040E064E1C5010E94B71E19C0CE010C
:103A40004C960E944724DC018D919C918C159D051C
:103A500078F461E0832D0E94FD01CE014C960E9416
:103A60005A2461E0892B09F460E0832D0E94CF0184
:103A7000F501178E168E42CE7A8A698A1C8A1B8AB5
:103A8000E0E1F0E0FE8BED8B61E472E0CE01419667
:103A90000E940518632D70E0CE0141960E941C1A09
:103AA000832D0E949602BC01B5CF3982BFE1B315C8
:103AB000F8F2E32DF0E0EE0FFF1FE05CFD4F2591E3
:103AC000349121153105A1F2E1E02C383E0781F255
:103AD000C301F9010995CCCFCE014C960E94472431
:103AE0008C8D9D8D9C01201B310B421A530A9A83A9
:103AF00089835C824B825E824D82398AFFE1F315B5
:103B000008F4B6CFE32DF0E0EE0FFF1FE058FD4FB5
:103B1000259134912115310509F4AACF01E02B3804
:103B2000300709F4A5CFB301CE014196F9010995FB
:103B30009FCFD5015E964D915C91D12CC12CF12C7B
:103B4000E12C02E010E030E020E060E074CF8A8DEC
:103B50009B8D800F911F1A8309839C838B83081789
:103B6000190708F0CBCDC3010E944724D5015F9609
:103B70001C921E925E97C2CDF50112A211A28285FF
:103B800093850E941009BACD0E9403032B013C01CA
:103B9000F501828593850E94FD08D50191962D91AE
:103BA0003C912130310509F05EC0F501811109C059
:103BB000408E518E628E738E12A211A282859385E1
:103BC0001ACD80899189A289B38993018201081B4A
:103BD000190B2A0B3B0BD901C801893116EF91074C
:103BE000A105B10548F7893C9F4AA105B10590F4AC
:103BF00084899589A689B78993018201081B190BCD
:103C00002A0B3B0BD901C801893C9F4AA105B1058C
:103C100008F46FCCF501808D918DA28DB38D930149
:103C20008201081B190B2A0B3B0BD901C8018137F4
:103C30009741A105B10508F45CCCD12CC12CF12C25
:103C4000E12C10E000E030E020E050E040E066E0F1
:103C5000C5010E94B71ED50158964D925D926D9296
:103C60007C925B9746CC232B09F043CCF501408D29
:103C7000518D628D738D93018201041B150B260BF0
:103C8000370BB901A801882381F0413757416105FD
:103C9000710508F42ECC828593850E941009D50108
:103CA00092961C921E929197A8CC49385341610577
:103CB000710508F41ECC828593850E941009D501F8
:103CC0001A960D911C91F80162857385C8010E94B6
:103CD000B608D8011C968C931C9781110DC01A96BA
:103CE0008D919C918035910599F460E97FE1C8013F
:103CF0000E94B608F8018487F8019484911014C0DA
:103D0000D50158964D925D926D927C925B9776CCE0
:103D100080399F4189F760E570E0C8010E94B608CC
:103D2000D8011C968C93E8CF81E090E0F501958F47
:103D3000848F24853585F90101900020E9F73197BA
:103D40008F01021B130BD12CC12CF12CE12C41E073
:103D500050E06DE1C5010E94B71EF5018489958987
:103D6000A689B789808F918FA28FB38F47CC2F926E
:103D70003F924F925F926F927F928F929F92AF92FB
:103D8000BF92CF92DF92EF92FF920F931F93CF9348
:103D9000DF93CDB7DEB7C854D1090FB6F894DEBFB4
:103DA0000FBECDBF4C0168AF5AAF49AF27963FAFAA
:103DB0002EAF279721961FAF0EAF21972996FFAE02
:103DC000EEAE29972396DFAECEAE2397DC011A968E
:103DD0008D919C910E94FD08882309F4BBC1B8AD68
:103DE000BB2351F0B63041F0BD3131F0F40181A177
:103DF00092A1019709F0AEC188AD8F508630A0F531
:103E0000D40154964D915D916D917C915797509648
:103E1000CD90DD90ED90FC905397C416D506E60644
:103E2000F70610F46A017B01B2E4CB0ED11CE11C51
:103E3000F11C0E940303A7019601261B370B480BB8
:103E4000590BDA01C901B7FDAAC0C4010E94411A89
:103E50000E940303A7019601261B370B480B590B41
:103E6000DA01C901B7FFF1CFF40180819181019797
:103E700009F0B7C082E090E0918380832281338192
:103E8000448155816681778180859185A0E0FE011E
:103E90007A960E94763409F477C1FBABEAAB1DAA8F
:103EA0001CAA88E190E09FAB8EAB6EE272E0CE017F
:103EB000C2960E940518D40112964C901297139640
:103EC0005C90139714966C90149715967C901597A8
:103ED0001696BC91BBAFF401F781FCAFD4011896E4
:103EE0002C90189719963C90198E9201A3016BADF6
:103EF0007F2FC101A0E00E94763409F459C0FE0171
:103F000079962596FFAFEEAF259727E130E03EAFDB
:103F10002DAF8AE0A82EB12CC12CD12CE12CF12C94
:103F200000E010E09201A3016BAD7CADC1010E94E5
:103F30001734F901EA5BFD4F80812596AEADBFAD28
:103F400025978E932596BFAFAEAF2597EDADFEAD0D
:103F50003197FEAFEDAF9AE0A92EB12CC12CD12C38
:103F6000E12CF12C00E010E09201A3016BAD7CADDF
:103F7000C1010E94193429013A016BAF7CAF1C01C9
:103F8000A0E00E94763421F04DAD5EAD452B09F6E0
:103F90006DAD7EAD6C0F7D1F6E5F7F4F0EC0D40187
:103FA00090968C91811160CFC4010E94411A5CCF20
:103FB00080E3888FBE01685E7F4FCE01C2960E946B
:103FC0002D180CA91DA9015011092AA93BA9D12C12
:103FD000C12CF12CE12C50E040E065E1C4010E94CD
:103FE000B71E29AD3AAD232BB9F4D4015E960D90DE
:103FF000BC91A02DBAAFA9AFAB2B71F4F401848DA5
:10400000958D019609F4D5C0958F848FF401048CA9
:10401000F58DE02DFAAFE9AF27962EAD3FAD27978E
:1040200021960EAD1FAD21970B5F1F4F232B11F46F
:1040300005E010E029964EAD5FAD299790E080E055
:10404000452B21F023968EAD9FAD2397080F191FA6
:1040500058AD598389AD9AAD9827892798279B83B6
:104060008A8321968EAD9FAD21972396AEADBFADCD
:1040700023978A0F9B1F9827892798279D838C83D6
:10408000D4011A96ED91FC9180819181DC01ED9132
:10409000FC910280F381E02D45E050E0BE016F5FAE
:1040A0007F4F09957C0160E070E0CB010E94D00257
:1040B000B8ADBB2309F444C02196EEADFFAD219706
:1040C000EF2BE1F0D4011A96ED91FC918081918162
:1040D000DC01ED91FC910280F381E02D21964EAD43
:1040E0005FAD219727966EAD7FAD27970995E80EB6
:1040F000F91E60E070E0CB010E94D0022396EEAD85
:10410000FFAD2397EF2BE1F0D4011A96ED91FC91CE
:1041100080819181DC01ED91FC910280F381E02DA1
:1041200023964EAD5FAD239729966EAD7FAD29974F
:104130000995E80EF91E60E070E0CB010E94D00204
:10414000E016F106D9F1F40112A211A2828593853D
:104150000E941009C85BDF4F0FB6F894DEBF0FBE98
:10416000CDBFDF91CF911F910F91FF90EF90DF9026
:10417000CF90BF90AF909F908F907F906F905F9007
:104180004F903F902F900895FA83E9831C821B8201
:1041900084E090E09E838D8364E472E0CE0101961A
:1041A0000E9405180B811C810150110929813A8157
:1041B0000ECF81E090E0958F848F28CF0E9403037B
:1041C000D40154966D937D938D939C935797C2CF52
:1041D000CF92DF92EF92FF920F931F93CF93DF93D3
:1041E000CDB7DEB7C658D1090FB6F894DEBF0FBE03
:1041F000CDBF8C01CE010196CF57DF4F99838883C5
:10420000C158D040CD57DF4F19821882C358D040D3
:1042100080E890E0CB57DF4F99838883C558D04022
:104220006AE672E0CE018F579F4F0E94051866E044
:1042300070E0CE018F579F4F0E941C1AB801CE012B
:104240008F579F4F0E942D18CD57DF4F088119813E
:10425000C358D04001501109CF57DF4F2881398111
:10426000C158D040D12CC12CF12CE12C50E040E0C1
:1042700064E180E296E00E94B71ECA57DF4F0FB696
:10428000F894DEBF0FBECDBFDF91CF911F910F918C
:10429000FF90EF90DF90CF900895CF92DF92EF9252
:1042A000FF920F931F93CF93DF93CDB7DEB7C6581E
:1042B000D1090FB6F894DEBF0FBECDBF7C018B01D4
:1042C000CE010196CF57DF4F99838883C158D040E4
:1042D000CD57DF4F19821882C358D04080E890E054
:1042E000CB57DF4F99838883C558D0406AE672E088
:1042F000CE018F579F4F0E940518B701CE018F57EF
:104300009F4F0E941C1AB801CE018F579F4F0E94E9
:104310001C1ACD57DF4F08811981C358D040015076
:104320001109CF57DF4F28813981C158D040D12C96
:10433000C12CF12CE12C50E040E064E180E296E0F9
:104340000E94B71ECA57DF4F0FB6F894DEBF0FBEEC
:10435000CDBFDF91CF911F910F91FF90EF90DF9034
:10436000CF9008958F929F92AF92BF92CF92DF929B
:10437000EF92FF920F931F93CF93DF93CDB7DEB7EA
:10438000C75AD1090FB6F894DEBF0FBECDBF8EE07D
:104390000E949602BC01990F880B990B0E94D231A2
:1043A00020E030E040EA5BE30E9431326B017C01A7
:1043B000CE0101964C01CE55DF4F99838883C25AB6
:1043C000D040CC55DF4F19821882C45AD04020E823
:1043D000A22EB12CCA55DF4FB982A882C65AD0404E
:1043E0006AE672E08F559F4F0E94051861E070E009
:1043F000CE018E559F4F0E941C1A2AE037ED43E2F2
:104400005CE3C701B6010E9489338E010F571F4F2D
:1044100023E045E00E94122DB801CE018E559F4F3A
:104420000E940518CC55DF4F08811981C45AD0402D
:1044300001501109CE55DF4F28813981C25AD04031
:10444000D12CC12CF12CE12C50E040E064E180E261
:1044500096E00E94B71E0E9420098C01CE55DF4FC6
:1044600099828882C25AD040CC55DF4F1982188277
:10447000C45AD040CA55DF4FB982A882C65AD0402C
:104480006AE672E0CE018E559F4F0E94051863E0E8
:1044900070E0CE018E559F4F0E941C1A4AE0BE016B
:1044A0006F577F4FC8010E946F2FBE016F577F4F1C
:1044B000CE018E559F4F0E940518CC55DF4F0881C5
:1044C0001981C45AD04001501109CE55DF4F2881BF
:1044D0003981C25AD04050E040E064E180E296E089
:1044E0000E94B71EC955DF4F0FB6F894DEBF0FBE4E
:1044F000CDBFDF91CF911F910F91FF90EF90DF9093
:10450000CF90BF90AF909F908F9008951F920F9281
:104510000FB60F9211242F933F938F939F93AF93D6
:10452000BF9380915E0490915F04A0916004B0916C
:10453000610430915D0423E0230F2D3758F5019677
:10454000A11DB11D20935D0480935E0490935F04D0
:10455000A0936004B093610480916204909163041D
:10456000A0916404B09165040196A11DB11D8093D2
:10457000620490936304A0936404B0936504BF91B4
:10458000AF919F918F913F912F910F900FBE0F9000
:104590001F90189526E8230F0296A11DB11DD2CFBA
:1045A0001F920F920FB60F9211242F933F934F93A8
:1045B0005F936F937F938F939F93AF93BF93EF938B
:1045C000FF9383E894E00E945F04FF91EF91BF9115
:1045D000AF919F918F917F916F915F914F913F919B
:1045E0002F910F900FBE0F901F9018951F920F9252
:1045F0000FB60F9211242F938F939F93EF93FF93F6
:10460000E0919304F09194048081E0919904F091F9
:104610009A0482FD1BC0908180919C048F5F8F73F0
:1046200020919D04821741F0E0919C04F0E0ED5749
:10463000FB4F958F80939C04FF91EF919F918F91F9
:104640002F910F900FBE0F901F9018958081F4CF7F
:104650001F920F920FB60F9211242F933F934F93F7
:104660005F936F937F938F939F93AF93BF93EF93DA
:10467000FF938091B900887F803609F44AC0F0F535
:10468000883209F4A7C018F5803109F49BC0B8F44A
:10469000882309F4F9C0883009F494C0FF91EF91A0
:1046A000BF91AF919F918F917F916F915F914F914A
:1046B0003F912F910F900FBE0F901F90189588314A
:1046C00009F488C0803251F78093B90314C0803454
:1046D00009F49DC040F48033B9F38833F9F6809330
:1046E000B90385ECB0C0803509F485C0883509F47C
:1046F00096C0883499F60E944518D0CF883909F4BD
:104700008CC038F5883729F050F4883611F080379E
:1047100029F683E08093BB031092940357C0883836
:1047200009F47BC0803919F0803809F0B7CF809147
:104730009403803208F071C0E091940381E08E0F01
:10474000809394038091BB00F0E0EC58FC4F808391
:104750003DC0803B39F0E0F4803A09F479C0883AF2
:1047600009F09CCF84E08093BB03109273031092F6
:104770007203E0915304F0915404099580917203FF
:1047800081110FC081E0809372031092520309C01F
:10479000803C09F4A6CF883C09F4A3CF883B09F0FC
:1047A0007DCFE091730381E08E0F80937303F0E07F
:1047B000EE5AFC4F80818093BB00909173038091EF
:1047C000720329C0809196038093BB0085EC80938F
:1047D000BC0064CF9091B8038091B703981758F547
:1047E000E091B80381E08E0F8093B803F0E0E956C2
:1047F000FC4F8081E9CFE091B80381E08E0F809378
:10480000B8038091BB00F0E0E956FC4F80839091A3
:10481000B8038091B7039817C8F285E8D8CFE09124
:10482000B80381E08E0F8093B8038091BB00F0E065
:10483000E956FC4F80838091BA0381115CCF81E0FF
:104840008093950384EA8093BC001092BB0326CF2B
:1048500085EC8093BC001092BB038091940380325E
:1048600030F4E0919403F0E0EC58FC4F108260913A
:10487000940370E0E0915104F091520484E793E0D6
:104880000995109294030ACF1092B90334CFDC013A
:10489000ED91FC911197309761F012962D913C911A
:1048A0001397E217F30728F401900020E9F7ED933E
:1048B000FC930895FC0180819181009739F0228159
:1048C00033818217930710F40C94F92E90E080E066
:1048D0000895AF92BF92CF92DF92EF92FF920F9323
:1048E0001F93CF93DF93CDB7DEB7C05CD1090FB66E
:1048F000F894DEBF0FBECDBF5C01CE0185589F4F3F
:10490000C554DF4F99838883CB5BD040C354DF4FBE
:1049100019821882CD5BD04080E490E0C154DF4F13
:1049200099838883CF5BD04067E572E0CE018554E0
:104930009F4F0E9405186CE572E0CE0185549F4F91
:104940000E942D184AE750E06AE671E0CE01019618
:104950000E943E2FC354DF4FC880D980CD5BD0402A
:10496000C554DF4FE880F980CB5BD0400AE710E008
:104970009E012F5F3F4F50E040E061E1C5010E9482
:10498000B71EC054DF4F0FB6F894DEBF0FBECDBFC9
:10499000DF91CF911F910F91FF90EF90DF90CF901B
:1049A000BF90AF900895E3E8F4E01382128288EE9E
:1049B00093E0A0E0B0E084839583A683B78329E6E3
:1049C00031E03183208325EC30E03587248724ECE7
:1049D00030E03787268720EC30E0318B208B21ECCC
:1049E00030E0338B228B22EC30E0358B248B26ECAD
:1049F00030E0378B268B118E128E138E148EE0E2F0
:104A0000F5E01382128284839583A683B7838BE7B4
:104A100091E091838083ECE2F5E08BEC91E091836F
:104A200080831282138214821582E2E3F5E091837F
:104A300080831282138214821582E8E3F5E0918369
:104A400080831282138214821582EEE3F5E0918353
:104A500080831282138214821582E4E4F5E091834C
:104A600080831282138214821582E0E5F5E091833F
:104A700080831282138214821582EAE4F5E0918326
:104A800080831282138214821582E6E5F5E0918319
:104A900080831282138214821582ECE5F5E0918303
:104AA00080831282138214821582E5E6F6E09183F8
:104AB00080831282138214821582E6E5F6E0138267
:104AC000128229E931E03183208324E0248728EE13
:104AD00033E036872587A9E4B6E013969C938E933E
:104AE000129714961D921D921D921C92179719965B
:104AF0001C921E9218971B961C921E921A971C9637
:104B00001C921C971196FC93EE9340E757E160E0EE
:104B100070E04483558366837783E0E2F6E0118298
:104B200010821282138214821582168217821086D6
:104B30001186B387A2871586148617861686108A73
:104B4000118A128A138A148A158A168A178A108E75
:104B5000118E128E138E158E148E178E168E10A235
:104B600012A211A28FEF9FEF90931F0680931E0653
:104B7000E2E6F5E0138212828DE891E09183808372
:104B800087E2848380E1818782E0828713860895AB
:104B9000CF93DF93CDB7DEB7A7970FB6F894DEBFFC
:104BA0000FBECDBF789484B5826084BD84B581602A
:104BB00084BD85B5826085BD85B5816085BD8091E8
:104BC0006E00816080936E00109281008091810060
:104BD0008260809381008091810081608093810058
:104BE000809180008160809380008091B10084601A
:104BF0008093B1008091B00081608093B00080917B
:104C00007A00846080937A0080917A008260809339
:104C10007A0080917A00816080937A0080917A0096
:104C2000806880937A001092C1008EEF80934306D3
:104C30009DEE909344062AEB20934506809346060A
:104C4000809347069093480620E031E0D9010D900B
:104C50000020E9F79D0121503140A0E0B1E0E1E002
:104C6000F0E0AD01405051404217530784F4AF01CA
:104C70004F5F5F4F6D91E05EF94F83A1862783A35D
:104C80004630510514F041E050E0FA01EACF80913E
:104C9000490481112AC0109231041092300488EE28
:104CA00093E0A0E0B0E08093320490933304A093AB
:104CB0003404B09335048FE391E090932F048093F4
:104CC0002E048BEC91E090933D0480933C04109271
:104CD0003E0410923F04109240041092410484E07C
:104CE0008093460481E0809349048BEE93E0909397
:104CF000EA038093E9038091E8038111ADC060E38A
:104D000072E080E090E00E94D002DFB6F8940EE0FE
:104D100012E0E2E2EE2EE2E0FE2E8091E603811147
:104D200025C0F8018491F7019491E82FF0E0EE0F8F
:104D3000FF1FEA51FE4FA591B4918C91982321F465
:104D400061E08AE00E94CF0161E08AE00E94FD01FB
:104D50008CB580618CBD8CB580648CBD61E08DE0CC
:104D60000E94FD0161E08BE00E94FD018091E6035D
:104D70008F5F8093E603DFBEF8010491E02FF0E03F
:104D8000EE0FFF1FE051FE4F859194919093E50344
:104D90008093E403F701E490E092E30361E08AE0AA
:104DA0000E94FD010E94DF0680E591E00E948D01D6
:104DB00084E38093820480E80E94AB070E949E0CEB
:104DC000882309F4FEC188E00E94AB070E948B0C87
:104DD000883009F0F6C180E10E94AB070E948B0C7D
:104DE000803109F0EEC180E00E94AB070E948B0C7D
:104DF000182F8111E6C141E050E0BE016F5F7F4F87
:104E00008FE190E00E94160B8981833009F0D9C1AF
:104E100080E48093E70342E06EE170E0812F0E941E
:104E2000070842E06FE170E0812F0E9407081F5FD2
:104E3000143089F740E06EE170E0812F0E9407088E
:104E400040E06FE170E0812F0E9407081F5F18307B
:104E500089F781E08093E80380E591E00E948D016D
:104E600046E050E063E476E089E090E00E94FB06D3
:104E70008BEC91E09A8389831B821C821D821E82A7
:104E800044E050E0BE016D5F7F4F8FE090E00E94F4
:104E9000FB060091E9031091EA03D80192961D9256
:104EA0001D921D921C929597F80116A217A210A6AA
:104EB00011A69A961D921D921D921C929D9780E6B6
:104EC0009AEEA0E0B0E086AB97ABA0AFB1AF80EABE
:104ED0009FE0A0E0B0E082AF93AFA4AFB5AFD80140
:104EE000189686E0FD01282F11922A95E9F798017E
:104EF000225F3F4F94E1F90111929A95E9F7E3E4BB
:104F0000F6E001900D928A95E1F7C8018E5B9F4F04
:104F10009DA38CA3DC011C920E94A12E2FEC37E0F4
:104F200040E050E00E94EF32DC01CB010196A11D70
:104F3000B11DF80184839583A683B7838083918311
:104F4000A283B3835801F3E4AF0EB11CC5010E94E4
:104F5000E60B64E470E0C5010E944F0F882309F45A
:104F600099C10E9403032B013C0148EEC42E43E08B
:104F7000D42EE12CF12C52E0252E912C812CACA1C9
:104F8000BDA18C918330B9F181118EC1F80184816A
:104F90009581A681B7810196A11DB11D848395835A
:104FA000A683B7830E9403036419750986099709CC
:104FB000A70196010E945833A90161E0C8010E942F
:104FC000F71681E0ACA1BDA18C93F1E08F1691049E
:104FD000B1F20E9403036419750986099709D80183
:104FE000D6962D913D914D915C91D9972617370713
:104FF0004807590710F6C5010E94E60BF8018481A5
:105000009581A681B7810196A11DB11D84839583E9
:10501000A683B7830E940303F801FE966083718321
:10502000828393838A94892809F034C180E591E0D2
:105030000E948D010091E9031091EA03B801625FBB
:105040007F4FCE0101960E94F41244E050E0BE0171
:105050006D5F7F4F8FE090E00E94FB06B8016A5EB3
:105060007F4FCE0101960E94F41244E050E0BE0151
:105070006D5F7F4F81E090E00E94FB06B8016E5E9D
:105080007F4FCE0101960E94F41244E050E0BE0131
:105090006D5F7F4F85E090E00E94FB06B801625E85
:1050A0007F4FCE0101960E94F4128B819C81AD81CD
:1050B000BE8180934C0590934D05A0934E05B0930F
:1050C0004F050E94AB027F738091210190912201D4
:1050D00068277927709322016093210168EE73E0BD
:1050E00080E090E00E94D0028BEC91E09A8389836B
:1050F0001B821C821D821E8280E591E00E948D0130
:1051000044E050E0BE016D5F7F4F8FE090E00E9471
:10511000160B80E091E090932D0680932C060E9460
:105120000303DC01CB0188589341A109B1098093A5
:10513000340690933506A0933606B09337068093D5
:10514000300690933106A0933206B09333068093D5
:10515000380690933906A0933A06B0933B06E09147
:105160002A06F0912B068DE692E09187808780E5F4
:1051700090E09387828780912A0690912B060E9467
:10518000100910924206109241060E9403036B011F
:105190007C018091410690914206019709F44FC12C
:1051A0000E9403036C197D098E099F0960357644BE
:1051B0008105910508F043C180E296E00E94411A02
:1051C000E8CF87E38093820480E80E94AB070E94C7
:1051D0009E0C882329F188E00E94AB070E948B0C6B
:1051E0008830F1F480E10E94AB070E948B0C182FED
:1051F0008031B1F480E00E94AB070E948B0C8111DA
:105200000FC041E050E0BE016F5F7F4F89E390E047
:105210000E94160B8981843019F41093E70319CE8C
:1052200083E38093820480E80E94AB070E949E0C77
:10523000882371F180E10E94AB070E948B0C8031C2
:1052400039F582E10E94AB070E948B0C823101F597
:1052500080E00E94AB070E948B0C811119C084E092
:105260008093E70315E51BA341E050E0BE016D5DAF
:105270007F4F8BE190E00E94FB061AA341E050E0D3
:10528000BE016E5D7F4F8AE190E00E94FB06E1CD9A
:105290001092820460E177E280E090E00E94D00208
:1052A000F0E0E0E00995FFCF8430F9F4F801848163
:1052B0009581A681B7810196A11DB11D8483958337
:1052C000A683B7830E9403036419750986099709A9
:1052D000A70196010E945833A90163E0C8010E940A
:1052E000F716ACA1BDA12C9270CE813059F5F80112
:1052F00042AD53AD64AD75AD9E012F5F3F4FC80108
:105300000E947D18382EF2E08F1392C089819A8115
:10531000AB81BC81F80184839583A683B7830E9407
:1053200003036419750986099709A70196010E946C
:105330005833A90163E0C8010E94F716ACA1BDA1D2
:105340003C9243CE823009F040CEF80142AD53ADDD
:1053500064AD75AD9E012F5F3F4FC8010E947D185F
:10536000382EF5E08F135DC0E3E0ACA1BDA1EC9356
:10537000F80182A193A1A4A1B5A1892B8A2B8B2B23
:1053800041F484E893E0A0E0B0E082A393A3A4A357
:10539000B5A3F80186A197A1A0A5B1A5892B8A2B59
:1053A0008B2B61F482A193A1A4A1B5A1B695A79579
:1053B0009795879586A397A3A0A7B1A7F80182A583
:1053C00093A5A4A5B5A5892B8A2B8B2BA9F482A123
:1053D00093A1A4A1B5A1AC01BD0123E07695679589
:1053E000579547952A95D1F7841B950BA60BB70BBC
:1053F00082A793A7A4A7B5A7F80186A197A1A0A506
:10540000B1A586A797A7A0ABB1AB82A593A5A4A58C
:10541000B5A582AB93ABA4ABB5AB88248394912C98
:10542000D4CDF6E08F1304C0ACA1BDA11C92CDCDAC
:10543000BFEF3B12CACDECA1FDA11082C6CD809179
:10544000410690914206019709F095CE10925804BA
:105450001092570410925604109255040E941A0597
:105460008FE893E0909354048093530480E993E091
:1054700090935204809351041092670580916C05BB
:10548000823018F098E09093670580936A0562E394
:1054900070E080E090E00E94D00260916D0582E6AD
:1054A00095E00E94DE0568EE73E080E090E00E94E7
:1054B000D00260E382E695E00E94130A0BE416E452
:1054C000C8010197F1F760E382E695E00E94130AB4
:1054D000C8010197F1F760E382E695E00E94130AA4
:1054E00083E592E00197F1F760E282E695E00E94A1
:1054F000130A60916705606240E082E695E00E94D1
:105500002C0A84E08093680540E06CE082E695E038
:105510000E942C0A40E061E082E695E00E942C0A9D
:105520000BE31FE1C8010197F1F792E0F92EF09229
:10553000690540E066E082E695E00E942C0A40E0C2
:1055400062E082E695E00E942C0AC8010197F1F71B
:1055500088E080936D0560E082E695E00E94DE05BC
:1055600040E061E082E695E00E942C0AC8010197C4
:10557000F1F740E062E082E695E00E942C0AC80163
:105580000197F1F761E083E00E94FD0161E085E0B1
:105590000E94FD0161E084E00E94FD01E09193041E
:1055A000F0919404F082E0918F04F09190041082C5
:1055B000E0919104F091920487E6808310929B041D
:1055C000E0919704F091980486E08083E09195043F
:1055D000F0919604808180618083E0919504F09140
:1055E0009604808188608083E0919504F091960410
:1055F000808180688083E0919504F0919604808199
:105600008F7D80838FEF90E00E94CE048FEF90E03B
:105610000E94CE048FEF90E00E94CE0482EB91E2D4
:105620009A838983AE014F5F5F4F64EF71E080E042
:1056300090E00E940F0386E79AE09A838983AE0187
:105640004F5F5F4F68E873E180E090E00E940F03D6
:1056500022242394312C80E296E00E94411A0E9479
:1056600003036CA37DA38EA39FA38EE6E82E85E0A3
:10567000F82E8701D80155961C921E9254971496C5
:105680008D919C911597892B29F416968D919C915B
:10569000892BC9F1F80140805180628073806CA130
:1056A0007DA18EA19FA1641975098609970983843C
:1056B0009484A584B684681579058A059B0518F13C
:1056C000A50194010E945833C501B4010E94003421
:1056D000460E571E681E791ED8014D925D926D923E
:1056E0007C92139753968C915397882361F01F9661
:1056F0002D913C9150972115310509F071C15596B6
:105700003C922E9254970A5E1F4F96E00E31190775
:1057100009F0B0CF10E000E0D70154968D919C9134
:105720005597892BE9F11A968C911A97882309F4D9
:105730006CC11696ED91FC91179718968D919C91DE
:105740000995F70184899589029751F580911E0684
:1057500090911F06892B21F184819581892B21F459
:1057600086819781892BE1F026E1209FF001219F1E
:10577000F00D1124E259FA4FDF011D922A95E9F745
:105780000E940303F7016083718382839383809176
:105790001E0690911F06019790931F0680931E0688
:1057A0000F5F1F4FF6E1EF0EF11C0830110509F0F5
:1057B000B3CF60E082E00E94430A8EE00E9496022E
:1057C000BC01990F880B990B0E94D23120E030E088
:1057D00040EA5BE30E9431322AE037ED43E25CE3CA
:1057E0000E9489338E010F5F1F4F22E044E00E9428
:1057F000122D6C01009709F40DC1FC0101900020ED
:10580000E9F731978F01081B190BB8016F5F7F4FC4
:1058100090E080E00E9488347C01009709F4FFC08A
:10582000DC011C92B6010E946B35A801B70182E62B
:1058300095E00E94E103E114F10419F0C7010E9410
:10584000CC2D0E9420098C0190935C0480935B0412
:1058500061E082E00E94430AA80170E060E02AE073
:1058600082E695E00E94630961E086E00E94430AB7
:1058700085ED91E00E94BC098FE00E9496029C0198
:10588000AFEFB0E00E947A332FEF33E040E050E01A
:105890000E94EF326FEF70E0621B730B83E00E9497
:1058A00039028EE00E949602BC01990F880B990B79
:1058B0000E94D23120E030E040EA5BE30E943132C6
:1058C0002AE037ED43E25CE30E94893320E030E0D8
:1058D0004CE052E40E94FB331816E4F48091590422
:1058E0008823C1F01092590460E085E00E94CF0146
:1058F00060E087E00E94430A8BE092E00E94BC09CE
:1059000089E792E00E94E82070E060E082E090E0A9
:105910000E944D2180915B0490915C04803D9740F2
:10592000D8F480915A04811117C00E943F0981E088
:1059300080935A0461E087E00E94430A8CEE91E074
:105940000E94BC098AEB92E00E94E82061E070E0CE
:1059500084E090E00E944D2180915B0490915C0472
:10596000883B9B40D1F480915A048823B1F00E9477
:10597000370910925A0461E087E00E94430A86EFDB
:1059800091E00E94BC0984EF92E00E94E82070E060
:1059900060E084E090E00E944D2160E080E00E94A1
:1059A000430A89E293E00E94BC0961E080E00E9422
:1059B000430A8CE293E00E94BC0964EF71E080E04E
:1059C00090E00E94D00280E090E0892B09F443CE61
:1059D0000E944B04882309F43ECE0E9400003BCE77
:1059E000F801818992898217930708F08CCE358A55
:1059F000248A0196928B818B8217930708F483CEB9
:105A000082E090E0958B848B7ECE1496ED91FC9194
:105A1000099597CE10E000E0F12CE12C06CF10E0C4
:105A200000E003CFEF920F931F93CF93DF93E80132
:105A300034E047FD34E1042E000C550B57FF03C042
:105A4000519541955109E32E022F242FAE010E945A
:105A5000892FCE01DF91CF911F910F91EF90089583
:105A60000F931F93CF93DF938230910510F482E060
:105A700090E0E0916D06F0916E0630E020E0B0E03D
:105A8000A0E0309799F42115310509F44AC0281B8C
:105A9000390B24303105D8F58A819B816115710558
:105AA00089F1FB0193838283FE0111C04081518102
:105AB0000281138148175907E0F04817590799F4F4
:105AC000109761F012960C93129713961C933296CE
:105AD000CF01DF91CF911F910F91089500936D0633
